:100000000C9434000C943E000C943E000C943E0082
:100010000C943E000C943E000C943E000C943E0068
:100020000C943E000C943E000C943E000C943E0058
:100030000C943E000C943E000C943E000C943E0048
:100040000C943E000C943E000C943E000C943E0038
:100050000C943E000C943E000C943E000C943E0028
:100060000C943E000C943E0011241FBECFEFD8E04C
:10007000DEBFCDBF0E9440000C949E000C94000097
:1000800084B18F6384B985B1816085B92FEF81EE2A
:1000900094E0215080409040E1F700C0000085B11D
:1000A0008E7F85B985B1826085B92FEF81EE94E0AE
:1000B000215080409040E1F700C0000085B18D7F65
:1000C00085B985B1846085B92FEF81EE94E0215028
:1000D00080409040E1F700C0000085B18B7F85B97A
:1000E00085B1886085B92FEF81EE94E02150804082
:1000F0009040E1F700C0000085B1877F85B985B1E8
:10010000806185B92FEF81EE94E0215080409040CE
:10011000E1F700C0000085B18F7E85B985B18062AE
:1001200085B92FEF81EE94E0215080409040E1F7B7
:1001300000C0000085B18F7D85B9A5CFF894FFCFB1
:00000001FF
