:100000000C9434000C943E000C943E000C943E0082
:100010000C943E000C943E000C943E000C943E0068
:100020000C943E000C943E000C943E000C943E0058
:100030000C943E000C943E000C943E000C943E0048
:100040000C943E000C943E000C943E000C943E0038
:100050000C943E000C943E000C943E000C943E0028
:100060000C943E000C943E0011241FBECFEFD8E04C
:10007000DEBFCDBF0E9440000C9483000C940000B2
:100080008FE384B9ECE7F0E080E4808380818160D5
:10009000808387E880937A00EAE7F0E080818064DB
:1000A000808380917A0086FDFCCF809178009091CA
:1000B00079008239910510F415B8EECF853221E030
:1000C000920718F481E085B9E7CF873B21E09207DA
:1000D00018F483E085B9E0CF893422E0920718F460
:1000E00087E085B9D9CF8B3D22E0920718F48FE0E5
:1000F00085B9D2CF8E36934018F48FE185B9CCCF35
:0A0100008FE385B9C9CFF894FFCF53
:00000001FF
