S01100004C6F6F704C696368742E7372656385
S11300000C9434000C9449000C9449000C9449005D
S11300100C9449000C9449000C9449000C94490038
S11300200C9449000C9449000C9449000C94490028
S11300300C9449000C9449000C9449000C94490018
S11300400C9449000C9449000C9449000C94490008
S11300500C9449000C9449000C9449000C944900F8
S11300600C9449000C94490011241FBECFEFD8E032
S1130070DEBFCDBF11E0A0E0B1E0EAE1F2E002C0F2
S113008005900D92A430B107D9F70E944B000C944F
S11300900B010C94000084B18F6384B98AB1806829
S11300A08AB98BB18F778BB98BB188678BB989B1DA
S11300B086FD1CC020910001309101012C593F4F55
S11300C03093010120930001293E334034F028EE9F
S11300D033E03093010120930001EFEFF0E722E0D9
S11300E0E150F0402040E1F700C0000085FD1CC055
S11300F0209100013091010124563109309301010E
S1130100209300012436310534F424E630E03093A2
S11301100101209300013FEF90E7E2E0315090406D
S1130120E040E1F700C0000084FD0FC021E030E0B2
S11301303093030120930201FFEF20E732E0F150F6
S113014020403040E1F700C0000083FD0DC0109254
S11301500301109202018FEF90E7E2E0815090409A
S1130160E040E1F700C0000080910201909103019A
S1130170019731F165E070E04BC085B141E050E09A
S1130180062E02C0440F551F0A94E2F7842B85B94A
S113019080E090E007C0EFE9FFE03197F1F700C09D
S11301A0000001962091000130910101821793070C
S11301B094F385B14095482345B96F5F7F4F02C0E2
S11301C060E070E066307105C4F271CF85B141E042
S11301D050E0062E02C0440F551F0A94E2F7842B08
S11301E085B980E090E007C0EFE9FFE03197F1F7CF
S11301F000C0000001962091000130910101821796
S1130200930794F385B14095482345B9615071092A
S10D02107723E4F64CCFF894FFCFF7
S107021A6400010077
S9030000FC
